{
  "_format": "hh-sol-artifact-1",
  "contractName": "NftMarket",
  "sourceName": "contracts/NftMarket.sol",
  "abi": [
    {
      "inputs": [],
      "stateMutability": "nonpayable",
      "type": "constructor"
    },
    {
      "anonymous": false,
      "inputs": [
        {
          "indexed": true,
          "internalType": "address",
          "name": "owner",
          "type": "address"
        },
        {
          "indexed": true,
          "internalType": "address",
          "name": "approved",
          "type": "address"
        },
        {
          "indexed": true,
          "internalType": "uint256",
          "name": "tokenId",
          "type": "uint256"
        }
      ],
      "name": "Approval",
      "type": "event"
    },
    {
      "anonymous": false,
      "inputs": [
        {
          "indexed": true,
          "internalType": "address",
          "name": "owner",
          "type": "address"
        },
        {
          "indexed": true,
          "internalType": "address",
          "name": "operator",
          "type": "address"
        },
        {
          "indexed": false,
          "internalType": "bool",
          "name": "approved",
          "type": "bool"
        }
      ],
      "name": "ApprovalForAll",
      "type": "event"
    },
    {
      "anonymous": false,
      "inputs": [
        {
          "indexed": true,
          "internalType": "uint256",
          "name": "tokenId",
          "type": "uint256"
        },
        {
          "indexed": false,
          "internalType": "address",
          "name": "seller",
          "type": "address"
        },
        {
          "indexed": false,
          "internalType": "address",
          "name": "owner",
          "type": "address"
        },
        {
          "indexed": false,
          "internalType": "uint256",
          "name": "price",
          "type": "uint256"
        },
        {
          "indexed": false,
          "internalType": "bool",
          "name": "sold",
          "type": "bool"
        }
      ],
      "name": "MarketItemCreated",
      "type": "event"
    },
    {
      "anonymous": false,
      "inputs": [
        {
          "indexed": true,
          "internalType": "address",
          "name": "from",
          "type": "address"
        },
        {
          "indexed": true,
          "internalType": "address",
          "name": "to",
          "type": "address"
        },
        {
          "indexed": true,
          "internalType": "uint256",
          "name": "tokenId",
          "type": "uint256"
        }
      ],
      "name": "Transfer",
      "type": "event"
    },
    {
      "inputs": [
        {
          "internalType": "address",
          "name": "to",
          "type": "address"
        },
        {
          "internalType": "uint256",
          "name": "tokenId",
          "type": "uint256"
        }
      ],
      "name": "approve",
      "outputs": [],
      "stateMutability": "nonpayable",
      "type": "function"
    },
    {
      "inputs": [
        {
          "internalType": "address",
          "name": "owner",
          "type": "address"
        }
      ],
      "name": "balanceOf",
      "outputs": [
        {
          "internalType": "uint256",
          "name": "",
          "type": "uint256"
        }
      ],
      "stateMutability": "view",
      "type": "function"
    },
    {
      "inputs": [
        {
          "internalType": "uint256",
          "name": "tokenId",
          "type": "uint256"
        }
      ],
      "name": "createMarketSale",
      "outputs": [],
      "stateMutability": "payable",
      "type": "function"
    },
    {
      "inputs": [
        {
          "internalType": "string",
          "name": "tokenURI",
          "type": "string"
        },
        {
          "internalType": "uint256",
          "name": "price",
          "type": "uint256"
        }
      ],
      "name": "createToken",
      "outputs": [
        {
          "internalType": "uint256",
          "name": "",
          "type": "uint256"
        }
      ],
      "stateMutability": "payable",
      "type": "function"
    },
    {
      "inputs": [],
      "name": "fetchItemsListed",
      "outputs": [
        {
          "components": [
            {
              "internalType": "uint256",
              "name": "tokenId",
              "type": "uint256"
            },
            {
              "internalType": "address payable",
              "name": "seller",
              "type": "address"
            },
            {
              "internalType": "address payable",
              "name": "owner",
              "type": "address"
            },
            {
              "internalType": "uint256",
              "name": "price",
              "type": "uint256"
            },
            {
              "internalType": "bool",
              "name": "sold",
              "type": "bool"
            }
          ],
          "internalType": "struct NftMarket.MarketItem[]",
          "name": "",
          "type": "tuple[]"
        }
      ],
      "stateMutability": "view",
      "type": "function"
    },
    {
      "inputs": [],
      "name": "fetchMyNFTs",
      "outputs": [
        {
          "components": [
            {
              "internalType": "uint256",
              "name": "tokenId",
              "type": "uint256"
            },
            {
              "internalType": "address payable",
              "name": "seller",
              "type": "address"
            },
            {
              "internalType": "address payable",
              "name": "owner",
              "type": "address"
            },
            {
              "internalType": "uint256",
              "name": "price",
              "type": "uint256"
            },
            {
              "internalType": "bool",
              "name": "sold",
              "type": "bool"
            }
          ],
          "internalType": "struct NftMarket.MarketItem[]",
          "name": "",
          "type": "tuple[]"
        }
      ],
      "stateMutability": "view",
      "type": "function"
    },
    {
      "inputs": [
        {
          "internalType": "uint256",
          "name": "tokenId",
          "type": "uint256"
        }
      ],
      "name": "getApproved",
      "outputs": [
        {
          "internalType": "address",
          "name": "",
          "type": "address"
        }
      ],
      "stateMutability": "view",
      "type": "function"
    },
    {
      "inputs": [],
      "name": "getListingPrice",
      "outputs": [
        {
          "internalType": "uint256",
          "name": "",
          "type": "uint256"
        }
      ],
      "stateMutability": "view",
      "type": "function"
    },
    {
      "inputs": [
        {
          "internalType": "address",
          "name": "owner",
          "type": "address"
        },
        {
          "internalType": "address",
          "name": "operator",
          "type": "address"
        }
      ],
      "name": "isApprovedForAll",
      "outputs": [
        {
          "internalType": "bool",
          "name": "",
          "type": "bool"
        }
      ],
      "stateMutability": "view",
      "type": "function"
    },
    {
      "inputs": [],
      "name": "name",
      "outputs": [
        {
          "internalType": "string",
          "name": "",
          "type": "string"
        }
      ],
      "stateMutability": "view",
      "type": "function"
    },
    {
      "inputs": [
        {
          "internalType": "uint256",
          "name": "tokenId",
          "type": "uint256"
        }
      ],
      "name": "ownerOf",
      "outputs": [
        {
          "internalType": "address",
          "name": "",
          "type": "address"
        }
      ],
      "stateMutability": "view",
      "type": "function"
    },
    {
      "inputs": [
        {
          "internalType": "address",
          "name": "from",
          "type": "address"
        },
        {
          "internalType": "address",
          "name": "to",
          "type": "address"
        },
        {
          "internalType": "uint256",
          "name": "tokenId",
          "type": "uint256"
        }
      ],
      "name": "safeTransferFrom",
      "outputs": [],
      "stateMutability": "nonpayable",
      "type": "function"
    },
    {
      "inputs": [
        {
          "internalType": "address",
          "name": "from",
          "type": "address"
        },
        {
          "internalType": "address",
          "name": "to",
          "type": "address"
        },
        {
          "internalType": "uint256",
          "name": "tokenId",
          "type": "uint256"
        },
        {
          "internalType": "bytes",
          "name": "_data",
          "type": "bytes"
        }
      ],
      "name": "safeTransferFrom",
      "outputs": [],
      "stateMutability": "nonpayable",
      "type": "function"
    },
    {
      "inputs": [
        {
          "internalType": "address",
          "name": "operator",
          "type": "address"
        },
        {
          "internalType": "bool",
          "name": "approved",
          "type": "bool"
        }
      ],
      "name": "setApprovalForAll",
      "outputs": [],
      "stateMutability": "nonpayable",
      "type": "function"
    },
    {
      "inputs": [
        {
          "internalType": "bytes4",
          "name": "interfaceId",
          "type": "bytes4"
        }
      ],
      "name": "supportsInterface",
      "outputs": [
        {
          "internalType": "bool",
          "name": "",
          "type": "bool"
        }
      ],
      "stateMutability": "view",
      "type": "function"
    },
    {
      "inputs": [],
      "name": "symbol",
      "outputs": [
        {
          "internalType": "string",
          "name": "",
          "type": "string"
        }
      ],
      "stateMutability": "view",
      "type": "function"
    },
    {
      "inputs": [
        {
          "internalType": "uint256",
          "name": "tokenId",
          "type": "uint256"
        }
      ],
      "name": "tokenURI",
      "outputs": [
        {
          "internalType": "string",
          "name": "",
          "type": "string"
        }
      ],
      "stateMutability": "view",
      "type": "function"
    },
    {
      "inputs": [
        {
          "internalType": "address",
          "name": "from",
          "type": "address"
        },
        {
          "internalType": "address",
          "name": "to",
          "type": "address"
        },
        {
          "internalType": "uint256",
          "name": "tokenId",
          "type": "uint256"
        }
      ],
      "name": "transferFrom",
      "outputs": [],
      "stateMutability": "nonpayable",
      "type": "function"
    },
    {
      "inputs": [
        {
          "internalType": "uint256",
          "name": "_listingPrice",
          "type": "uint256"
        }
      ],
      "name": "updateListingPrice",
      "outputs": [],
      "stateMutability": "payable",
      "type": "function"
    }
  ],
  "bytecode": "0x60806040526658d15e176280006009553480156200001c57600080fd5b506040518060400160405280600981526020017f596f7572546f6b656e00000000000000000000000000000000000000000000008152506040518060400160405280600381526020017f59544b00000000000000000000000000000000000000000000000000000000008152508160009080519060200190620000a192919062000104565b508060019080519060200190620000ba92919062000104565b50505033600a60006101000a81548173ffffffffffffffffffffffffffffffffffffffff021916908373ffffffffffffffffffffffffffffffffffffffff16021790555062000219565b8280546200011290620001b4565b90600052602060002090601f01602090048101928262000136576000855562000182565b82601f106200015157805160ff191683800117855562000182565b8280016001018555821562000182579182015b828111156200018157825182559160200191906001019062000164565b5b50905062000191919062000195565b5090565b5b80821115620001b057600081600090555060010162000196565b5090565b60006002820490506001821680620001cd57607f821691505b60208210811415620001e457620001e3620001ea565b5b50919050565b7f4e487b7100000000000000000000000000000000000000000000000000000000600052602260045260246000fd5b613cc580620002296000396000f3fe6080604052600436106101145760003560e01c80636352211e116100a0578063ae677aa311610064578063ae677aa3146103b8578063b88d4fde146103d4578063be9af536146103fd578063c87b56dd14610419578063e985e9c51461045657610114565b80636352211e146102ba57806370a08231146102f757806372b3b6201461033457806395d89b4114610364578063a22cb4651461038f57610114565b806312e85585116100e757806312e85585146101e7578063202e37401461021257806323b872dd1461023d57806342842e0e1461026657806345f8fa801461028f57610114565b806301ffc9a71461011957806306fdde0314610156578063081812fc14610181578063095ea7b3146101be575b600080fd5b34801561012557600080fd5b50610140600480360381019061013b919061293f565b610493565b60405161014d9190612f97565b60405180910390f35b34801561016257600080fd5b5061016b610575565b6040516101789190612fb2565b60405180910390f35b34801561018d57600080fd5b506101a860048036038101906101a391906129e5565b610607565b6040516101b59190612ec9565b60405180910390f35b3480156101ca57600080fd5b506101e560048036038101906101e09190612903565b61068c565b005b3480156101f357600080fd5b506101fc6107a4565b6040516102099190613254565b60405180910390f35b34801561021e57600080fd5b506102276107ae565b6040516102349190612f75565b60405180910390f35b34801561024957600080fd5b50610264600480360381019061025f91906127fd565b610ae8565b005b34801561027257600080fd5b5061028d600480360381019061028891906127fd565b610b48565b005b34801561029b57600080fd5b506102a4610b68565b6040516102b19190612f75565b60405180910390f35b3480156102c657600080fd5b506102e160048036038101906102dc91906129e5565b610ea2565b6040516102ee9190612ec9565b60405180910390f35b34801561030357600080fd5b5061031e60048036038101906103199190612798565b610f54565b60405161032b9190613254565b60405180910390f35b61034e60048036038101906103499190612991565b61100c565b60405161035b9190613254565b60405180910390f35b34801561037057600080fd5b5061037961104e565b6040516103869190612fb2565b60405180910390f35b34801561039b57600080fd5b506103b660048036038101906103b191906128c7565b6110e0565b005b6103d260048036038101906103cd91906129e5565b6110f6565b005b3480156103e057600080fd5b506103fb60048036038101906103f6919061284c565b611190565b005b610417600480360381019061041291906129e5565b6111f2565b005b34801561042557600080fd5b50610440600480360381019061043b91906129e5565b611430565b60405161044d9190612fb2565b60405180910390f35b34801561046257600080fd5b5061047d600480360381019061047891906127c1565b611582565b60405161048a9190612f97565b60405180910390f35b60007f80ac58cd000000000000000000000000000000000000000000000000000000007bffffffffffffffffffffffffffffffffffffffffffffffffffffffff1916827bffffffffffffffffffffffffffffffffffffffffffffffffffffffff1916148061055e57507f5b5e139f000000000000000000000000000000000000000000000000000000007bffffffffffffffffffffffffffffffffffffffffffffffffffffffff1916827bffffffffffffffffffffffffffffffffffffffffffffffffffffffff1916145b8061056e575061056d82611616565b5b9050919050565b606060008054610584906134f5565b80601f01602080910402602001604051908101604052809291908181526020018280546105b0906134f5565b80156105fd5780601f106105d2576101008083540402835291602001916105fd565b820191906000526020600020905b8154815290600101906020018083116105e057829003601f168201915b5050505050905090565b600061061282611680565b610651576040517f08c379a000000000000000000000000000000000000000000000000000000000815260040161064890613174565b60405180910390fd5b6004600083815260200190815260200160002060009054906101000a900473ffffffffffffffffffffffffffffffffffffffff169050919050565b600061069782610ea2565b90508073ffffffffffffffffffffffffffffffffffffffff168373ffffffffffffffffffffffffffffffffffffffff161415610708576040517f08c379a00000000000000000000000000000000000000000000000000000000081526004016106ff906131b4565b60405180910390fd5b8073ffffffffffffffffffffffffffffffffffffffff166107276116ec565b73ffffffffffffffffffffffffffffffffffffffff1614806107565750610755816107506116ec565b611582565b5b610795576040517f08c379a000000000000000000000000000000000000000000000000000000000815260040161078c90613094565b60405180910390fd5b61079f83836116f4565b505050565b6000600954905090565b606060006107bc60076117ad565b905060008060005b83811015610865573373ffffffffffffffffffffffffffffffffffffffff16600b60006001846107f49190613372565b815260200190815260200160002060020160009054906101000a900473ffffffffffffffffffffffffffffffffffffffff1673ffffffffffffffffffffffffffffffffffffffff1614156108525760018361084f9190613372565b92505b808061085d90613558565b9150506107c4565b5060008267ffffffffffffffff8111156108a8577f4e487b7100000000000000000000000000000000000000000000000000000000600052604160045260246000fd5b6040519080825280602002602001820160405280156108e157816020015b6108ce61255f565b8152602001906001900390816108c65790505b50905060005b84811015610add573373ffffffffffffffffffffffffffffffffffffffff16600b60006001846109179190613372565b815260200190815260200160002060020160009054906101000a900473ffffffffffffffffffffffffffffffffffffffff1673ffffffffffffffffffffffffffffffffffffffff161415610aca5760006001826109749190613372565b90506000600b60008381526020019081526020016000209050806040518060a0016040529081600082015481526020016001820160009054906101000a900473ffffffffffffffffffffffffffffffffffffffff1673ffffffffffffffffffffffffffffffffffffffff1673ffffffffffffffffffffffffffffffffffffffff1681526020016002820160009054906101000a900473ffffffffffffffffffffffffffffffffffffffff1673ffffffffffffffffffffffffffffffffffffffff1673ffffffffffffffffffffffffffffffffffffffff168152602001600382015481526020016004820160009054906101000a900460ff161515151581525050848681518110610aad577f4e487b7100000000000000000000000000000000000000000000000000000000600052603260045260246000fd5b6020026020010181905250600185610ac59190613372565b945050505b8080610ad590613558565b9150506108e7565b508094505050505090565b610af9610af36116ec565b826117bb565b610b38576040517f08c379a0000000000000000000000000000000000000000000000000000000008152600401610b2f906131f4565b60405180910390fd5b610b43838383611899565b505050565b610b6383838360405180602001604052806000815250611190565b505050565b60606000610b7660076117ad565b905060008060005b83811015610c1f573373ffffffffffffffffffffffffffffffffffffffff16600b6000600184610bae9190613372565b815260200190815260200160002060010160009054906101000a900473ffffffffffffffffffffffffffffffffffffffff1673ffffffffffffffffffffffffffffffffffffffff161415610c0c57600183610c099190613372565b92505b8080610c1790613558565b915050610b7e565b5060008267ffffffffffffffff811115610c62577f4e487b7100000000000000000000000000000000000000000000000000000000600052604160045260246000fd5b604051908082528060200260200182016040528015610c9b57816020015b610c8861255f565b815260200190600190039081610c805790505b50905060005b84811015610e97573373ffffffffffffffffffffffffffffffffffffffff16600b6000600184610cd19190613372565b815260200190815260200160002060010160009054906101000a900473ffffffffffffffffffffffffffffffffffffffff1673ffffffffffffffffffffffffffffffffffffffff161415610e84576000600182610d2e9190613372565b90506000600b60008381526020019081526020016000209050806040518060a0016040529081600082015481526020016001820160009054906101000a900473ffffffffffffffffffffffffffffffffffffffff1673ffffffffffffffffffffffffffffffffffffffff1673ffffffffffffffffffffffffffffffffffffffff1681526020016002820160009054906101000a900473ffffffffffffffffffffffffffffffffffffffff1673ffffffffffffffffffffffffffffffffffffffff1673ffffffffffffffffffffffffffffffffffffffff168152602001600382015481526020016004820160009054906101000a900460ff161515151581525050848681518110610e67577f4e487b7100000000000000000000000000000000000000000000000000000000600052603260045260246000fd5b6020026020010181905250600185610e7f9190613372565b945050505b8080610e8f90613558565b915050610ca1565b508094505050505090565b6000806002600084815260200190815260200160002060009054906101000a900473ffffffffffffffffffffffffffffffffffffffff169050600073ffffffffffffffffffffffffffffffffffffffff168173ffffffffffffffffffffffffffffffffffffffff161415610f4b576040517f08c379a0000000000000000000000000000000000000000000000000000000008152600401610f42906130d4565b60405180910390fd5b80915050919050565b60008073ffffffffffffffffffffffffffffffffffffffff168273ffffffffffffffffffffffffffffffffffffffff161415610fc5576040517f08c379a0000000000000000000000000000000000000000000000000000000008152600401610fbc906130b4565b60405180910390fd5b600360008373ffffffffffffffffffffffffffffffffffffffff1673ffffffffffffffffffffffffffffffffffffffff168152602001908152602001600020549050919050565b60006110186007611b00565b600061102460076117ad565b90506110303382611b16565b61103a8185611cf0565b6110448184611d64565b8091505092915050565b60606001805461105d906134f5565b80601f0160208091040260200160405190810160405280929190818152602001828054611089906134f5565b80156110d65780601f106110ab576101008083540402835291602001916110d6565b820191906000526020600020905b8154815290600101906020018083116110b957829003601f168201915b5050505050905090565b6110f26110eb6116ec565b8383611f67565b5050565b3373ffffffffffffffffffffffffffffffffffffffff16600a60009054906101000a900473ffffffffffffffffffffffffffffffffffffffff1673ffffffffffffffffffffffffffffffffffffffff1614611186576040517f08c379a000000000000000000000000000000000000000000000000000000000815260040161117d90613214565b60405180910390fd5b8060098190555050565b6111a161119b6116ec565b836117bb565b6111e0576040517f08c379a00000000000000000000000000000000000000000000000000000000081526004016111d7906131f4565b60405180910390fd5b6111ec848484846120d4565b50505050565b6000600b60008381526020019081526020016000206003015490506000600b600084815260200190815260200160002060010160009054906101000a900473ffffffffffffffffffffffffffffffffffffffff16905081341461128a576040517f08c379a000000000000000000000000000000000000000000000000000000000815260040161128190613114565b60405180910390fd5b33600b600085815260200190815260200160002060020160006101000a81548173ffffffffffffffffffffffffffffffffffffffff021916908373ffffffffffffffffffffffffffffffffffffffff1602179055506001600b600085815260200190815260200160002060040160006101000a81548160ff0219169083151502179055506000600b600085815260200190815260200160002060010160006101000a81548173ffffffffffffffffffffffffffffffffffffffff021916908373ffffffffffffffffffffffffffffffffffffffff16021790555061136e6008611b00565b611379303385611899565b600a60009054906101000a900473ffffffffffffffffffffffffffffffffffffffff1673ffffffffffffffffffffffffffffffffffffffff166108fc6009549081150290604051600060405180830381858888f193505050501580156113e3573d6000803e3d6000fd5b508073ffffffffffffffffffffffffffffffffffffffff166108fc349081150290604051600060405180830381858888f1935050505015801561142a573d6000803e3d6000fd5b50505050565b606061143b82611680565b61147a576040517f08c379a000000000000000000000000000000000000000000000000000000000815260040161147190613154565b60405180910390fd5b600060066000848152602001908152602001600020805461149a906134f5565b80601f01602080910402602001604051908101604052809291908181526020018280546114c6906134f5565b80156115135780601f106114e857610100808354040283529160200191611513565b820191906000526020600020905b8154815290600101906020018083116114f657829003601f168201915b505050505090506000611524612130565b905060008151141561153a57819250505061157d565b60008251111561156f578082604051602001611557929190612ea5565b6040516020818303038152906040529250505061157d565b61157884612147565b925050505b919050565b6000600560008473ffffffffffffffffffffffffffffffffffffffff1673ffffffffffffffffffffffffffffffffffffffff16815260200190815260200160002060008373ffffffffffffffffffffffffffffffffffffffff1673ffffffffffffffffffffffffffffffffffffffff16815260200190815260200160002060009054906101000a900460ff16905092915050565b60007f01ffc9a7000000000000000000000000000000000000000000000000000000007bffffffffffffffffffffffffffffffffffffffffffffffffffffffff1916827bffffffffffffffffffffffffffffffffffffffffffffffffffffffff1916149050919050565b60008073ffffffffffffffffffffffffffffffffffffffff166002600084815260200190815260200160002060009054906101000a900473ffffffffffffffffffffffffffffffffffffffff1673ffffffffffffffffffffffffffffffffffffffff1614159050919050565b600033905090565b816004600083815260200190815260200160002060006101000a81548173ffffffffffffffffffffffffffffffffffffffff021916908373ffffffffffffffffffffffffffffffffffffffff160217905550808273ffffffffffffffffffffffffffffffffffffffff1661176783610ea2565b73ffffffffffffffffffffffffffffffffffffffff167f8c5be1e5ebec7d5bd14f71427d1e84f3dd0314c0f7b2291e5b200ac8c7c3b92560405160405180910390a45050565b600081600001549050919050565b60006117c682611680565b611805576040517f08c379a00000000000000000000000000000000000000000000000000000000081526004016117fc90613074565b60405180910390fd5b600061181083610ea2565b90508073ffffffffffffffffffffffffffffffffffffffff168473ffffffffffffffffffffffffffffffffffffffff16148061185257506118518185611582565b5b8061189057508373ffffffffffffffffffffffffffffffffffffffff1661187884610607565b73ffffffffffffffffffffffffffffffffffffffff16145b91505092915050565b8273ffffffffffffffffffffffffffffffffffffffff166118b982610ea2565b73ffffffffffffffffffffffffffffffffffffffff161461190f576040517f08c379a000000000000000000000000000000000000000000000000000000000815260040161190690612ff4565b60405180910390fd5b600073ffffffffffffffffffffffffffffffffffffffff168273ffffffffffffffffffffffffffffffffffffffff16141561197f576040517f08c379a000000000000000000000000000000000000000000000000000000000815260040161197690613034565b60405180910390fd5b61198a8383836121ee565b6119956000826116f4565b6001600360008573ffffffffffffffffffffffffffffffffffffffff1673ffffffffffffffffffffffffffffffffffffffff16815260200190815260200160002060008282546119e591906133f9565b925050819055506001600360008473ffffffffffffffffffffffffffffffffffffffff1673ffffffffffffffffffffffffffffffffffffffff1681526020019081526020016000206000828254611a3c9190613372565b92505081905550816002600083815260200190815260200160002060006101000a81548173ffffffffffffffffffffffffffffffffffffffff021916908373ffffffffffffffffffffffffffffffffffffffff160217905550808273ffffffffffffffffffffffffffffffffffffffff168473ffffffffffffffffffffffffffffffffffffffff167fddf252ad1be2c89b69c2b068fc378daa952ba7f163c4a11628f55a4df523b3ef60405160405180910390a4611afb8383836121f3565b505050565b6001816000016000828254019250508190555050565b600073ffffffffffffffffffffffffffffffffffffffff168273ffffffffffffffffffffffffffffffffffffffff161415611b86576040517f08c379a0000000000000000000000000000000000000000000000000000000008152600401611b7d90613134565b60405180910390fd5b611b8f81611680565b15611bcf576040517f08c379a0000000000000000000000000000000000000000000000000000000008152600401611bc690613014565b60405180910390fd5b611bdb600083836121ee565b6001600360008473ffffffffffffffffffffffffffffffffffffffff1673ffffffffffffffffffffffffffffffffffffffff1681526020019081526020016000206000828254611c2b9190613372565b92505081905550816002600083815260200190815260200160002060006101000a81548173ffffffffffffffffffffffffffffffffffffffff021916908373ffffffffffffffffffffffffffffffffffffffff160217905550808273ffffffffffffffffffffffffffffffffffffffff16600073ffffffffffffffffffffffffffffffffffffffff167fddf252ad1be2c89b69c2b068fc378daa952ba7f163c4a11628f55a4df523b3ef60405160405180910390a4611cec600083836121f3565b5050565b611cf982611680565b611d38576040517f08c379a0000000000000000000000000000000000000000000000000000000008152600401611d2f906130f4565b60405180910390fd5b80600660008481526020019081526020016000209080519060200190611d5f9291906125bc565b505050565b60008111611da7576040517f08c379a0000000000000000000000000000000000000000000000000000000008152600401611d9e90613234565b60405180910390fd5b6009543414611deb576040517f08c379a0000000000000000000000000000000000000000000000000000000008152600401611de2906131d4565b60405180910390fd5b6040518060a001604052808381526020013373ffffffffffffffffffffffffffffffffffffffff1681526020013073ffffffffffffffffffffffffffffffffffffffff16815260200182815260200160001515815250600b60008481526020019081526020016000206000820151816000015560208201518160010160006101000a81548173ffffffffffffffffffffffffffffffffffffffff021916908373ffffffffffffffffffffffffffffffffffffffff16021790555060408201518160020160006101000a81548173ffffffffffffffffffffffffffffffffffffffff021916908373ffffffffffffffffffffffffffffffffffffffff1602179055506060820151816003015560808201518160040160006101000a81548160ff021916908315150217905550905050611f24333084611899565b817fb640004f1d14576d0c209e240cad0410e0d8c0c33a09375861fbadae2588a98d3330846000604051611f5b9493929190612ee4565b60405180910390a25050565b8173ffffffffffffffffffffffffffffffffffffffff168373ffffffffffffffffffffffffffffffffffffffff161415611fd6576040517f08c379a0000000000000000000000000000000000000000000000000000000008152600401611fcd90613054565b60405180910390fd5b80600560008573ffffffffffffffffffffffffffffffffffffffff1673ffffffffffffffffffffffffffffffffffffffff16815260200190815260200160002060008473ffffffffffffffffffffffffffffffffffffffff1673ffffffffffffffffffffffffffffffffffffffff16815260200190815260200160002060006101000a81548160ff0219169083151502179055508173ffffffffffffffffffffffffffffffffffffffff168373ffffffffffffffffffffffffffffffffffffffff167f17307eab39ab6107e8899845ad3d59bd9653f200f220920489ca2b5937696c31836040516120c79190612f97565b60405180910390a3505050565b6120df848484611899565b6120eb848484846121f8565b61212a576040517f08c379a000000000000000000000000000000000000000000000000000000000815260040161212190612fd4565b60405180910390fd5b50505050565b606060405180602001604052806000815250905090565b606061215282611680565b612191576040517f08c379a000000000000000000000000000000000000000000000000000000000815260040161218890613194565b60405180910390fd5b600061219b612130565b905060008151116121bb57604051806020016040528060008152506121e6565b806121c58461238f565b6040516020016121d6929190612ea5565b6040516020818303038152906040525b915050919050565b505050565b505050565b60006122198473ffffffffffffffffffffffffffffffffffffffff1661253c565b15612382578373ffffffffffffffffffffffffffffffffffffffff1663150b7a026122426116ec565b8786866040518563ffffffff1660e01b81526004016122649493929190612f29565b602060405180830381600087803b15801561227e57600080fd5b505af19250505080156122af57506040513d601f19601f820116820180604052508101906122ac9190612968565b60015b612332573d80600081146122df576040519150601f19603f3d011682016040523d82523d6000602084013e6122e4565b606091505b5060008151141561232a576040517f08c379a000000000000000000000000000000000000000000000000000000000815260040161232190612fd4565b60405180910390fd5b805181602001fd5b63150b7a0260e01b7bffffffffffffffffffffffffffffffffffffffffffffffffffffffff1916817bffffffffffffffffffffffffffffffffffffffffffffffffffffffff191614915050612387565b600190505b949350505050565b606060008214156123d7576040518060400160405280600181526020017f30000000000000000000000000000000000000000000000000000000000000008152509050612537565b600082905060005b600082146124095780806123f290613558565b915050600a8261240291906133c8565b91506123df565b60008167ffffffffffffffff81111561244b577f4e487b7100000000000000000000000000000000000000000000000000000000600052604160045260246000fd5b6040519080825280601f01601f19166020018201604052801561247d5781602001600182028036833780820191505090505b5090505b600085146125305760018261249691906133f9565b9150600a856124a591906135a1565b60306124b19190613372565b60f81b8183815181106124ed577f4e487b7100000000000000000000000000000000000000000000000000000000600052603260045260246000fd5b60200101907effffffffffffffffffffffffffffffffffffffffffffffffffffffffffffff1916908160001a905350600a8561252991906133c8565b9450612481565b8093505050505b919050565b6000808273ffffffffffffffffffffffffffffffffffffffff163b119050919050565b6040518060a0016040528060008152602001600073ffffffffffffffffffffffffffffffffffffffff168152602001600073ffffffffffffffffffffffffffffffffffffffff168152602001600081526020016000151581525090565b8280546125c8906134f5565b90600052602060002090601f0160209004810192826125ea5760008555612631565b82601f1061260357805160ff1916838001178555612631565b82800160010185558215612631579182015b82811115612630578251825591602001919060010190612615565b5b50905061263e9190612642565b5090565b5b8082111561265b576000816000905550600101612643565b5090565b600061267261266d84613294565b61326f565b90508281526020810184848401111561268a57600080fd5b6126958482856134b3565b509392505050565b60006126b06126ab846132c5565b61326f565b9050828152602081018484840111156126c857600080fd5b6126d38482856134b3565b509392505050565b6000813590506126ea81613c33565b92915050565b6000813590506126ff81613c4a565b92915050565b60008135905061271481613c61565b92915050565b60008151905061272981613c61565b92915050565b600082601f83011261274057600080fd5b813561275084826020860161265f565b91505092915050565b600082601f83011261276a57600080fd5b813561277a84826020860161269d565b91505092915050565b60008135905061279281613c78565b92915050565b6000602082840312156127aa57600080fd5b60006127b8848285016126db565b91505092915050565b600080604083850312156127d457600080fd5b60006127e2858286016126db565b92505060206127f3858286016126db565b9150509250929050565b60008060006060848603121561281257600080fd5b6000612820868287016126db565b9350506020612831868287016126db565b925050604061284286828701612783565b9150509250925092565b6000806000806080858703121561286257600080fd5b6000612870878288016126db565b9450506020612881878288016126db565b935050604061289287828801612783565b925050606085013567ffffffffffffffff8111156128af57600080fd5b6128bb8782880161272f565b91505092959194509250565b600080604083850312156128da57600080fd5b60006128e8858286016126db565b92505060206128f9858286016126f0565b9150509250929050565b6000806040838503121561291657600080fd5b6000612924858286016126db565b925050602061293585828601612783565b9150509250929050565b60006020828403121561295157600080fd5b600061295f84828501612705565b91505092915050565b60006020828403121561297a57600080fd5b60006129888482850161271a565b91505092915050565b600080604083850312156129a457600080fd5b600083013567ffffffffffffffff8111156129be57600080fd5b6129ca85828601612759565b92505060206129db85828601612783565b9150509250929050565b6000602082840312156129f757600080fd5b6000612a0584828501612783565b91505092915050565b6000612a1a8383612e1f565b60a08301905092915050565b612a2f8161343f565b82525050565b612a3e8161342d565b82525050565b6000612a4f82613306565b612a598185613334565b9350612a64836132f6565b8060005b83811015612a95578151612a7c8882612a0e565b9750612a8783613327565b925050600181019050612a68565b5085935050505092915050565b612aab81613451565b82525050565b612aba81613451565b82525050565b6000612acb82613311565b612ad58185613345565b9350612ae58185602086016134c2565b612aee8161368e565b840191505092915050565b6000612b048261331c565b612b0e8185613356565b9350612b1e8185602086016134c2565b612b278161368e565b840191505092915050565b6000612b3d8261331c565b612b478185613367565b9350612b578185602086016134c2565b80840191505092915050565b6000612b70603283613356565b9150612b7b8261369f565b604082019050919050565b6000612b93602583613356565b9150612b9e826136ee565b604082019050919050565b6000612bb6601c83613356565b9150612bc18261373d565b602082019050919050565b6000612bd9602483613356565b9150612be482613766565b604082019050919050565b6000612bfc601983613356565b9150612c07826137b5565b602082019050919050565b6000612c1f602c83613356565b9150612c2a826137de565b604082019050919050565b6000612c42603883613356565b9150612c4d8261382d565b604082019050919050565b6000612c65602a83613356565b9150612c708261387c565b604082019050919050565b6000612c88602983613356565b9150612c93826138cb565b604082019050919050565b6000612cab602e83613356565b9150612cb68261391a565b604082019050919050565b6000612cce604083613356565b9150612cd982613969565b604082019050919050565b6000612cf1602083613356565b9150612cfc826139b8565b602082019050919050565b6000612d14603183613356565b9150612d1f826139e1565b604082019050919050565b6000612d37602c83613356565b9150612d4282613a30565b604082019050919050565b6000612d5a602f83613356565b9150612d6582613a7f565b604082019050919050565b6000612d7d602183613356565b9150612d8882613ace565b604082019050919050565b6000612da0602483613356565b9150612dab82613b1d565b604082019050919050565b6000612dc3603183613356565b9150612dce82613b6c565b604082019050919050565b6000612de6603083613356565b9150612df182613bbb565b604082019050919050565b6000612e09601c83613356565b9150612e1482613c0a565b602082019050919050565b60a082016000820151612e356000850182612e87565b506020820151612e486020850182612a26565b506040820151612e5b6040850182612a26565b506060820151612e6e6060850182612e87565b506080820151612e816080850182612aa2565b50505050565b612e90816134a9565b82525050565b612e9f816134a9565b82525050565b6000612eb18285612b32565b9150612ebd8284612b32565b91508190509392505050565b6000602082019050612ede6000830184612a35565b92915050565b6000608082019050612ef96000830187612a35565b612f066020830186612a35565b612f136040830185612e96565b612f206060830184612ab1565b95945050505050565b6000608082019050612f3e6000830187612a35565b612f4b6020830186612a35565b612f586040830185612e96565b8181036060830152612f6a8184612ac0565b905095945050505050565b60006020820190508181036000830152612f8f8184612a44565b905092915050565b6000602082019050612fac6000830184612ab1565b92915050565b60006020820190508181036000830152612fcc8184612af9565b905092915050565b60006020820190508181036000830152612fed81612b63565b9050919050565b6000602082019050818103600083015261300d81612b86565b9050919050565b6000602082019050818103600083015261302d81612ba9565b9050919050565b6000602082019050818103600083015261304d81612bcc565b9050919050565b6000602082019050818103600083015261306d81612bef565b9050919050565b6000602082019050818103600083015261308d81612c12565b9050919050565b600060208201905081810360008301526130ad81612c35565b9050919050565b600060208201905081810360008301526130cd81612c58565b9050919050565b600060208201905081810360008301526130ed81612c7b565b9050919050565b6000602082019050818103600083015261310d81612c9e565b9050919050565b6000602082019050818103600083015261312d81612cc1565b9050919050565b6000602082019050818103600083015261314d81612ce4565b9050919050565b6000602082019050818103600083015261316d81612d07565b9050919050565b6000602082019050818103600083015261318d81612d2a565b9050919050565b600060208201905081810360008301526131ad81612d4d565b9050919050565b600060208201905081810360008301526131cd81612d70565b9050919050565b600060208201905081810360008301526131ed81612d93565b9050919050565b6000602082019050818103600083015261320d81612db6565b9050919050565b6000602082019050818103600083015261322d81612dd9565b9050919050565b6000602082019050818103600083015261324d81612dfc565b9050919050565b60006020820190506132696000830184612e96565b92915050565b600061327961328a565b90506132858282613527565b919050565b6000604051905090565b600067ffffffffffffffff8211156132af576132ae61365f565b5b6132b88261368e565b9050602081019050919050565b600067ffffffffffffffff8211156132e0576132df61365f565b5b6132e98261368e565b9050602081019050919050565b6000819050602082019050919050565b600081519050919050565b600081519050919050565b600081519050919050565b6000602082019050919050565b600082825260208201905092915050565b600082825260208201905092915050565b600082825260208201905092915050565b600081905092915050565b600061337d826134a9565b9150613388836134a9565b9250827fffffffffffffffffffffffffffffffffffffffffffffffffffffffffffffffff038211156133bd576133bc6135d2565b5b828201905092915050565b60006133d3826134a9565b91506133de836134a9565b9250826133ee576133ed613601565b5b828204905092915050565b6000613404826134a9565b915061340f836134a9565b925082821015613422576134216135d2565b5b828203905092915050565b600061343882613489565b9050919050565b600061344a82613489565b9050919050565b60008115159050919050565b60007fffffffff0000000000000000000000000000000000000000000000000000000082169050919050565b600073ffffffffffffffffffffffffffffffffffffffff82169050919050565b6000819050919050565b82818337600083830152505050565b60005b838110156134e05780820151818401526020810190506134c5565b838111156134ef576000848401525b50505050565b6000600282049050600182168061350d57607f821691505b6020821081141561352157613520613630565b5b50919050565b6135308261368e565b810181811067ffffffffffffffff8211171561354f5761354e61365f565b5b80604052505050565b6000613563826134a9565b91507fffffffffffffffffffffffffffffffffffffffffffffffffffffffffffffffff821415613596576135956135d2565b5b600182019050919050565b60006135ac826134a9565b91506135b7836134a9565b9250826135c7576135c6613601565b5b828206905092915050565b7f4e487b7100000000000000000000000000000000000000000000000000000000600052601160045260246000fd5b7f4e487b7100000000000000000000000000000000000000000000000000000000600052601260045260246000fd5b7f4e487b7100000000000000000000000000000000000000000000000000000000600052602260045260246000fd5b7f4e487b7100000000000000000000000000000000000000000000000000000000600052604160045260246000fd5b6000601f19601f8301169050919050565b7f4552433732313a207472616e7366657220746f206e6f6e20455243373231526560008201527f63656976657220696d706c656d656e7465720000000000000000000000000000602082015250565b7f4552433732313a207472616e736665722066726f6d20696e636f72726563742060008201527f6f776e6572000000000000000000000000000000000000000000000000000000602082015250565b7f4552433732313a20746f6b656e20616c7265616479206d696e74656400000000600082015250565b7f4552433732313a207472616e7366657220746f20746865207a65726f2061646460008201527f7265737300000000000000000000000000000000000000000000000000000000602082015250565b7f4552433732313a20617070726f766520746f2063616c6c657200000000000000600082015250565b7f4552433732313a206f70657261746f7220717565727920666f72206e6f6e657860008201527f697374656e7420746f6b656e0000000000000000000000000000000000000000602082015250565b7f4552433732313a20617070726f76652063616c6c6572206973206e6f74206f7760008201527f6e6572206e6f7220617070726f76656420666f7220616c6c0000000000000000602082015250565b7f4552433732313a2062616c616e636520717565727920666f7220746865207a6560008201527f726f206164647265737300000000000000000000000000000000000000000000602082015250565b7f4552433732313a206f776e657220717565727920666f72206e6f6e657869737460008201527f656e7420746f6b656e0000000000000000000000000000000000000000000000602082015250565b7f45524337323155524953746f726167653a2055524920736574206f66206e6f6e60008201527f6578697374656e7420746f6b656e000000000000000000000000000000000000602082015250565b7f506c65617365207375626d6974207468652061736b696e67207072696365206960008201527f6e206f7264657220746f20636f6d706c65746520746865207075726368617365602082015250565b7f4552433732313a206d696e7420746f20746865207a65726f2061646472657373600082015250565b7f45524337323155524953746f726167653a2055524920717565727920666f722060008201527f6e6f6e6578697374656e7420746f6b656e000000000000000000000000000000602082015250565b7f4552433732313a20617070726f76656420717565727920666f72206e6f6e657860008201527f697374656e7420746f6b656e0000000000000000000000000000000000000000602082015250565b7f4552433732314d657461646174613a2055524920717565727920666f72206e6f60008201527f6e6578697374656e7420746f6b656e0000000000000000000000000000000000602082015250565b7f4552433732313a20617070726f76616c20746f2063757272656e74206f776e6560008201527f7200000000000000000000000000000000000000000000000000000000000000602082015250565b7f5072696365206d75737420626520657175616c20746f206c697374696e67207060008201527f7269636500000000000000000000000000000000000000000000000000000000602082015250565b7f4552433732313a207472616e736665722063616c6c6572206973206e6f74206f60008201527f776e6572206e6f7220617070726f766564000000000000000000000000000000602082015250565b7f4f6e6c79206d61726b6574706c616365206f776e65722063616e20757064617460008201527f65206c697374696e672070726963652e00000000000000000000000000000000602082015250565b7f5072696365206d757374206265206174206c6561737420312077656900000000600082015250565b613c3c8161342d565b8114613c4757600080fd5b50565b613c5381613451565b8114613c5e57600080fd5b50565b613c6a8161345d565b8114613c7557600080fd5b50565b613c81816134a9565b8114613c8c57600080fd5b5056fea2646970667358221220f085672c6524aa56229490cf38ac72d3e32da624557108255fed81249c5ca85a64736f6c63430008040033",
  "linkReferences": {},
  "deployedLinkReferences": {}
}