{
  "_format": "hh-sol-artifact-1",
  "contractName": "NftMarket",
  "sourceName": "contracts/NftMarket.sol",
  "abi": [
    {
      "inputs": [],
      "stateMutability": "nonpayable",
      "type": "constructor"
    },
    {
      "anonymous": false,
      "inputs": [
        {
          "indexed": true,
          "internalType": "address",
          "name": "owner",
          "type": "address"
        },
        {
          "indexed": true,
          "internalType": "address",
          "name": "approved",
          "type": "address"
        },
        {
          "indexed": true,
          "internalType": "uint256",
          "name": "tokenId",
          "type": "uint256"
        }
      ],
      "name": "Approval",
      "type": "event"
    },
    {
      "anonymous": false,
      "inputs": [
        {
          "indexed": true,
          "internalType": "address",
          "name": "owner",
          "type": "address"
        },
        {
          "indexed": true,
          "internalType": "address",
          "name": "operator",
          "type": "address"
        },
        {
          "indexed": false,
          "internalType": "bool",
          "name": "approved",
          "type": "bool"
        }
      ],
      "name": "ApprovalForAll",
      "type": "event"
    },
    {
      "anonymous": false,
      "inputs": [
        {
          "indexed": true,
          "internalType": "uint256",
          "name": "tokenId",
          "type": "uint256"
        },
        {
          "indexed": false,
          "internalType": "address",
          "name": "seller",
          "type": "address"
        },
        {
          "indexed": false,
          "internalType": "address",
          "name": "owner",
          "type": "address"
        },
        {
          "indexed": false,
          "internalType": "uint256",
          "name": "price",
          "type": "uint256"
        },
        {
          "indexed": false,
          "internalType": "bool",
          "name": "sold",
          "type": "bool"
        }
      ],
      "name": "MarketItemCreated",
      "type": "event"
    },
    {
      "anonymous": false,
      "inputs": [
        {
          "indexed": true,
          "internalType": "address",
          "name": "from",
          "type": "address"
        },
        {
          "indexed": true,
          "internalType": "address",
          "name": "to",
          "type": "address"
        },
        {
          "indexed": true,
          "internalType": "uint256",
          "name": "tokenId",
          "type": "uint256"
        }
      ],
      "name": "Transfer",
      "type": "event"
    },
    {
      "inputs": [
        {
          "internalType": "address",
          "name": "to",
          "type": "address"
        },
        {
          "internalType": "uint256",
          "name": "tokenId",
          "type": "uint256"
        }
      ],
      "name": "approve",
      "outputs": [],
      "stateMutability": "nonpayable",
      "type": "function"
    },
    {
      "inputs": [
        {
          "internalType": "address",
          "name": "owner",
          "type": "address"
        }
      ],
      "name": "balanceOf",
      "outputs": [
        {
          "internalType": "uint256",
          "name": "",
          "type": "uint256"
        }
      ],
      "stateMutability": "view",
      "type": "function"
    },
    {
      "inputs": [
        {
          "internalType": "string",
          "name": "tokenURI",
          "type": "string"
        },
        {
          "internalType": "uint256",
          "name": "price",
          "type": "uint256"
        }
      ],
      "name": "createToken",
      "outputs": [
        {
          "internalType": "uint256",
          "name": "",
          "type": "uint256"
        }
      ],
      "stateMutability": "payable",
      "type": "function"
    },
    {
      "inputs": [],
      "name": "fetchItemsListed",
      "outputs": [
        {
          "components": [
            {
              "internalType": "uint256",
              "name": "tokenId",
              "type": "uint256"
            },
            {
              "internalType": "address payable",
              "name": "seller",
              "type": "address"
            },
            {
              "internalType": "address payable",
              "name": "owner",
              "type": "address"
            },
            {
              "internalType": "uint256",
              "name": "price",
              "type": "uint256"
            },
            {
              "internalType": "bool",
              "name": "sold",
              "type": "bool"
            }
          ],
          "internalType": "struct NftMarket.MarketItem[]",
          "name": "",
          "type": "tuple[]"
        }
      ],
      "stateMutability": "view",
      "type": "function"
    },
    {
      "inputs": [
        {
          "internalType": "uint256",
          "name": "tokenId",
          "type": "uint256"
        }
      ],
      "name": "getApproved",
      "outputs": [
        {
          "internalType": "address",
          "name": "",
          "type": "address"
        }
      ],
      "stateMutability": "view",
      "type": "function"
    },
    {
      "inputs": [],
      "name": "getListingPrice",
      "outputs": [
        {
          "internalType": "uint256",
          "name": "",
          "type": "uint256"
        }
      ],
      "stateMutability": "view",
      "type": "function"
    },
    {
      "inputs": [
        {
          "internalType": "address",
          "name": "owner",
          "type": "address"
        },
        {
          "internalType": "address",
          "name": "operator",
          "type": "address"
        }
      ],
      "name": "isApprovedForAll",
      "outputs": [
        {
          "internalType": "bool",
          "name": "",
          "type": "bool"
        }
      ],
      "stateMutability": "view",
      "type": "function"
    },
    {
      "inputs": [],
      "name": "name",
      "outputs": [
        {
          "internalType": "string",
          "name": "",
          "type": "string"
        }
      ],
      "stateMutability": "view",
      "type": "function"
    },
    {
      "inputs": [
        {
          "internalType": "uint256",
          "name": "tokenId",
          "type": "uint256"
        }
      ],
      "name": "ownerOf",
      "outputs": [
        {
          "internalType": "address",
          "name": "",
          "type": "address"
        }
      ],
      "stateMutability": "view",
      "type": "function"
    },
    {
      "inputs": [
        {
          "internalType": "address",
          "name": "from",
          "type": "address"
        },
        {
          "internalType": "address",
          "name": "to",
          "type": "address"
        },
        {
          "internalType": "uint256",
          "name": "tokenId",
          "type": "uint256"
        }
      ],
      "name": "safeTransferFrom",
      "outputs": [],
      "stateMutability": "nonpayable",
      "type": "function"
    },
    {
      "inputs": [
        {
          "internalType": "address",
          "name": "from",
          "type": "address"
        },
        {
          "internalType": "address",
          "name": "to",
          "type": "address"
        },
        {
          "internalType": "uint256",
          "name": "tokenId",
          "type": "uint256"
        },
        {
          "internalType": "bytes",
          "name": "_data",
          "type": "bytes"
        }
      ],
      "name": "safeTransferFrom",
      "outputs": [],
      "stateMutability": "nonpayable",
      "type": "function"
    },
    {
      "inputs": [
        {
          "internalType": "address",
          "name": "operator",
          "type": "address"
        },
        {
          "internalType": "bool",
          "name": "approved",
          "type": "bool"
        }
      ],
      "name": "setApprovalForAll",
      "outputs": [],
      "stateMutability": "nonpayable",
      "type": "function"
    },
    {
      "inputs": [
        {
          "internalType": "bytes4",
          "name": "interfaceId",
          "type": "bytes4"
        }
      ],
      "name": "supportsInterface",
      "outputs": [
        {
          "internalType": "bool",
          "name": "",
          "type": "bool"
        }
      ],
      "stateMutability": "view",
      "type": "function"
    },
    {
      "inputs": [],
      "name": "symbol",
      "outputs": [
        {
          "internalType": "string",
          "name": "",
          "type": "string"
        }
      ],
      "stateMutability": "view",
      "type": "function"
    },
    {
      "inputs": [
        {
          "internalType": "uint256",
          "name": "tokenId",
          "type": "uint256"
        }
      ],
      "name": "tokenURI",
      "outputs": [
        {
          "internalType": "string",
          "name": "",
          "type": "string"
        }
      ],
      "stateMutability": "view",
      "type": "function"
    },
    {
      "inputs": [
        {
          "internalType": "address",
          "name": "from",
          "type": "address"
        },
        {
          "internalType": "address",
          "name": "to",
          "type": "address"
        },
        {
          "internalType": "uint256",
          "name": "tokenId",
          "type": "uint256"
        }
      ],
      "name": "transferFrom",
      "outputs": [],
      "stateMutability": "nonpayable",
      "type": "function"
    },
    {
      "inputs": [
        {
          "internalType": "uint256",
          "name": "_listingPrice",
          "type": "uint256"
        }
      ],
      "name": "updateListingPrice",
      "outputs": [],
      "stateMutability": "payable",
      "type": "function"
    }
  ],
  "bytecode": "0x60806040526658d15e176280006009553480156200001c57600080fd5b506040518060400160405280600981526020017f596f7572546f6b656e00000000000000000000000000000000000000000000008152506040518060400160405280600381526020017f59544b00000000000000000000000000000000000000000000000000000000008152508160009080519060200190620000a192919062000104565b508060019080519060200190620000ba92919062000104565b50505033600a60006101000a81548173ffffffffffffffffffffffffffffffffffffffff021916908373ffffffffffffffffffffffffffffffffffffffff16021790555062000219565b8280546200011290620001b4565b90600052602060002090601f01602090048101928262000136576000855562000182565b82601f106200015157805160ff191683800117855562000182565b8280016001018555821562000182579182015b828111156200018157825182559160200191906001019062000164565b5b50905062000191919062000195565b5090565b5b80821115620001b057600081600090555060010162000196565b5090565b60006002820490506001821680620001cd57607f821691505b60208210811415620001e457620001e3620001ea565b5b50919050565b7f4e487b7100000000000000000000000000000000000000000000000000000000600052602260045260246000fd5b61365e80620002296000396000f3fe6080604052600436106100fe5760003560e01c80636352211e11610095578063a22cb46511610064578063a22cb4651461034e578063ae677aa314610377578063b88d4fde14610393578063c87b56dd146103bc578063e985e9c5146103f9576100fe565b80636352211e1461027957806370a08231146102b657806372b3b620146102f357806395d89b4114610323576100fe565b806312e85585116100d157806312e85585146101d157806323b872dd146101fc57806342842e0e1461022557806345f8fa801461024e576100fe565b806301ffc9a71461010357806306fdde0314610140578063081812fc1461016b578063095ea7b3146101a8575b600080fd5b34801561010f57600080fd5b5061012a6004803603810190610125919061236a565b610436565b604051610137919061299f565b60405180910390f35b34801561014c57600080fd5b50610155610518565b60405161016291906129ba565b60405180910390f35b34801561017757600080fd5b50610192600480360381019061018d9190612410565b6105aa565b60405161019f91906128d1565b60405180910390f35b3480156101b457600080fd5b506101cf60048036038101906101ca919061232e565b61062f565b005b3480156101dd57600080fd5b506101e6610747565b6040516101f39190612c3c565b60405180910390f35b34801561020857600080fd5b50610223600480360381019061021e9190612228565b610751565b005b34801561023157600080fd5b5061024c60048036038101906102479190612228565b6107b1565b005b34801561025a57600080fd5b506102636107d1565b604051610270919061297d565b60405180910390f35b34801561028557600080fd5b506102a0600480360381019061029b9190612410565b610b0b565b6040516102ad91906128d1565b60405180910390f35b3480156102c257600080fd5b506102dd60048036038101906102d891906121c3565b610bbd565b6040516102ea9190612c3c565b60405180910390f35b61030d600480360381019061030891906123bc565b610c75565b60405161031a9190612c3c565b60405180910390f35b34801561032f57600080fd5b50610338610cb7565b60405161034591906129ba565b60405180910390f35b34801561035a57600080fd5b50610375600480360381019061037091906122f2565b610d49565b005b610391600480360381019061038c9190612410565b610d5f565b005b34801561039f57600080fd5b506103ba60048036038101906103b59190612277565b610df9565b005b3480156103c857600080fd5b506103e360048036038101906103de9190612410565b610e5b565b6040516103f091906129ba565b60405180910390f35b34801561040557600080fd5b50610420600480360381019061041b91906121ec565b610fad565b60405161042d919061299f565b60405180910390f35b60007f80ac58cd000000000000000000000000000000000000000000000000000000007bffffffffffffffffffffffffffffffffffffffffffffffffffffffff1916827bffffffffffffffffffffffffffffffffffffffffffffffffffffffff1916148061050157507f5b5e139f000000000000000000000000000000000000000000000000000000007bffffffffffffffffffffffffffffffffffffffffffffffffffffffff1916827bffffffffffffffffffffffffffffffffffffffffffffffffffffffff1916145b80610511575061051082611041565b5b9050919050565b60606000805461052790612edd565b80601f016020809104026020016040519081016040528092919081815260200182805461055390612edd565b80156105a05780601f10610575576101008083540402835291602001916105a0565b820191906000526020600020905b81548152906001019060200180831161058357829003601f168201915b5050505050905090565b60006105b5826110ab565b6105f4576040517f08c379a00000000000000000000000000000000000000000000000000000000081526004016105eb90612b5c565b60405180910390fd5b6004600083815260200190815260200160002060009054906101000a900473ffffffffffffffffffffffffffffffffffffffff169050919050565b600061063a82610b0b565b90508073ffffffffffffffffffffffffffffffffffffffff168373ffffffffffffffffffffffffffffffffffffffff1614156106ab576040517f08c379a00000000000000000000000000000000000000000000000000000000081526004016106a290612b9c565b60405180910390fd5b8073ffffffffffffffffffffffffffffffffffffffff166106ca611117565b73ffffffffffffffffffffffffffffffffffffffff1614806106f957506106f8816106f3611117565b610fad565b5b610738576040517f08c379a000000000000000000000000000000000000000000000000000000000815260040161072f90612a9c565b60405180910390fd5b610742838361111f565b505050565b6000600954905090565b61076261075c611117565b826111d8565b6107a1576040517f08c379a000000000000000000000000000000000000000000000000000000000815260040161079890612bdc565b60405180910390fd5b6107ac8383836112b6565b505050565b6107cc83838360405180602001604052806000815250610df9565b505050565b606060006107df600761151d565b905060008060005b83811015610888573373ffffffffffffffffffffffffffffffffffffffff16600b60006001846108179190612d5a565b815260200190815260200160002060010160009054906101000a900473ffffffffffffffffffffffffffffffffffffffff1673ffffffffffffffffffffffffffffffffffffffff161415610875576001836108729190612d5a565b92505b808061088090612f40565b9150506107e7565b5060008267ffffffffffffffff8111156108cb577f4e487b7100000000000000000000000000000000000000000000000000000000600052604160045260246000fd5b60405190808252806020026020018201604052801561090457816020015b6108f1611f8a565b8152602001906001900390816108e95790505b50905060005b84811015610b00573373ffffffffffffffffffffffffffffffffffffffff16600b600060018461093a9190612d5a565b815260200190815260200160002060010160009054906101000a900473ffffffffffffffffffffffffffffffffffffffff1673ffffffffffffffffffffffffffffffffffffffff161415610aed5760006001826109979190612d5a565b90506000600b60008381526020019081526020016000209050806040518060a0016040529081600082015481526020016001820160009054906101000a900473ffffffffffffffffffffffffffffffffffffffff1673ffffffffffffffffffffffffffffffffffffffff1673ffffffffffffffffffffffffffffffffffffffff1681526020016002820160009054906101000a900473ffffffffffffffffffffffffffffffffffffffff1673ffffffffffffffffffffffffffffffffffffffff1673ffffffffffffffffffffffffffffffffffffffff168152602001600382015481526020016004820160009054906101000a900460ff161515151581525050848681518110610ad0577f4e487b7100000000000000000000000000000000000000000000000000000000600052603260045260246000fd5b6020026020010181905250600185610ae89190612d5a565b945050505b8080610af890612f40565b91505061090a565b508094505050505090565b6000806002600084815260200190815260200160002060009054906101000a900473ffffffffffffffffffffffffffffffffffffffff169050600073ffffffffffffffffffffffffffffffffffffffff168173ffffffffffffffffffffffffffffffffffffffff161415610bb4576040517f08c379a0000000000000000000000000000000000000000000000000000000008152600401610bab90612adc565b60405180910390fd5b80915050919050565b60008073ffffffffffffffffffffffffffffffffffffffff168273ffffffffffffffffffffffffffffffffffffffff161415610c2e576040517f08c379a0000000000000000000000000000000000000000000000000000000008152600401610c2590612abc565b60405180910390fd5b600360008373ffffffffffffffffffffffffffffffffffffffff1673ffffffffffffffffffffffffffffffffffffffff168152602001908152602001600020549050919050565b6000610c81600761152b565b6000610c8d600761151d565b9050610c993382611541565b610ca3818561171b565b610cad818461178f565b8091505092915050565b606060018054610cc690612edd565b80601f0160208091040260200160405190810160405280929190818152602001828054610cf290612edd565b8015610d3f5780601f10610d1457610100808354040283529160200191610d3f565b820191906000526020600020905b815481529060010190602001808311610d2257829003601f168201915b5050505050905090565b610d5b610d54611117565b8383611992565b5050565b3373ffffffffffffffffffffffffffffffffffffffff16600a60009054906101000a900473ffffffffffffffffffffffffffffffffffffffff1673ffffffffffffffffffffffffffffffffffffffff1614610def576040517f08c379a0000000000000000000000000000000000000000000000000000000008152600401610de690612bfc565b60405180910390fd5b8060098190555050565b610e0a610e04611117565b836111d8565b610e49576040517f08c379a0000000000000000000000000000000000000000000000000000000008152600401610e4090612bdc565b60405180910390fd5b610e5584848484611aff565b50505050565b6060610e66826110ab565b610ea5576040517f08c379a0000000000000000000000000000000000000000000000000000000008152600401610e9c90612b3c565b60405180910390fd5b6000600660008481526020019081526020016000208054610ec590612edd565b80601f0160208091040260200160405190810160405280929190818152602001828054610ef190612edd565b8015610f3e5780601f10610f1357610100808354040283529160200191610f3e565b820191906000526020600020905b815481529060010190602001808311610f2157829003601f168201915b505050505090506000610f4f611b5b565b9050600081511415610f65578192505050610fa8565b600082511115610f9a578082604051602001610f829291906128ad565b60405160208183030381529060405292505050610fa8565b610fa384611b72565b925050505b919050565b6000600560008473ffffffffffffffffffffffffffffffffffffffff1673ffffffffffffffffffffffffffffffffffffffff16815260200190815260200160002060008373ffffffffffffffffffffffffffffffffffffffff1673ffffffffffffffffffffffffffffffffffffffff16815260200190815260200160002060009054906101000a900460ff16905092915050565b60007f01ffc9a7000000000000000000000000000000000000000000000000000000007bffffffffffffffffffffffffffffffffffffffffffffffffffffffff1916827bffffffffffffffffffffffffffffffffffffffffffffffffffffffff1916149050919050565b60008073ffffffffffffffffffffffffffffffffffffffff166002600084815260200190815260200160002060009054906101000a900473ffffffffffffffffffffffffffffffffffffffff1673ffffffffffffffffffffffffffffffffffffffff1614159050919050565b600033905090565b816004600083815260200190815260200160002060006101000a81548173ffffffffffffffffffffffffffffffffffffffff021916908373ffffffffffffffffffffffffffffffffffffffff160217905550808273ffffffffffffffffffffffffffffffffffffffff1661119283610b0b565b73ffffffffffffffffffffffffffffffffffffffff167f8c5be1e5ebec7d5bd14f71427d1e84f3dd0314c0f7b2291e5b200ac8c7c3b92560405160405180910390a45050565b60006111e3826110ab565b611222576040517f08c379a000000000000000000000000000000000000000000000000000000000815260040161121990612a7c565b60405180910390fd5b600061122d83610b0b565b90508073ffffffffffffffffffffffffffffffffffffffff168473ffffffffffffffffffffffffffffffffffffffff16148061126f575061126e8185610fad565b5b806112ad57508373ffffffffffffffffffffffffffffffffffffffff16611295846105aa565b73ffffffffffffffffffffffffffffffffffffffff16145b91505092915050565b8273ffffffffffffffffffffffffffffffffffffffff166112d682610b0b565b73ffffffffffffffffffffffffffffffffffffffff161461132c576040517f08c379a0000000000000000000000000000000000000000000000000000000008152600401611323906129fc565b60405180910390fd5b600073ffffffffffffffffffffffffffffffffffffffff168273ffffffffffffffffffffffffffffffffffffffff16141561139c576040517f08c379a000000000000000000000000000000000000000000000000000000000815260040161139390612a3c565b60405180910390fd5b6113a7838383611c19565b6113b260008261111f565b6001600360008573ffffffffffffffffffffffffffffffffffffffff1673ffffffffffffffffffffffffffffffffffffffff16815260200190815260200160002060008282546114029190612de1565b925050819055506001600360008473ffffffffffffffffffffffffffffffffffffffff1673ffffffffffffffffffffffffffffffffffffffff16815260200190815260200160002060008282546114599190612d5a565b92505081905550816002600083815260200190815260200160002060006101000a81548173ffffffffffffffffffffffffffffffffffffffff021916908373ffffffffffffffffffffffffffffffffffffffff160217905550808273ffffffffffffffffffffffffffffffffffffffff168473ffffffffffffffffffffffffffffffffffffffff167fddf252ad1be2c89b69c2b068fc378daa952ba7f163c4a11628f55a4df523b3ef60405160405180910390a4611518838383611c1e565b505050565b600081600001549050919050565b6001816000016000828254019250508190555050565b600073ffffffffffffffffffffffffffffffffffffffff168273ffffffffffffffffffffffffffffffffffffffff1614156115b1576040517f08c379a00000000000000000000000000000000000000000000000000000000081526004016115a890612b1c565b60405180910390fd5b6115ba816110ab565b156115fa576040517f08c379a00000000000000000000000000000000000000000000000000000000081526004016115f190612a1c565b60405180910390fd5b61160660008383611c19565b6001600360008473ffffffffffffffffffffffffffffffffffffffff1673ffffffffffffffffffffffffffffffffffffffff16815260200190815260200160002060008282546116569190612d5a565b92505081905550816002600083815260200190815260200160002060006101000a81548173ffffffffffffffffffffffffffffffffffffffff021916908373ffffffffffffffffffffffffffffffffffffffff160217905550808273ffffffffffffffffffffffffffffffffffffffff16600073ffffffffffffffffffffffffffffffffffffffff167fddf252ad1be2c89b69c2b068fc378daa952ba7f163c4a11628f55a4df523b3ef60405160405180910390a461171760008383611c1e565b5050565b611724826110ab565b611763576040517f08c379a000000000000000000000000000000000000000000000000000000000815260040161175a90612afc565b60405180910390fd5b8060066000848152602001908152602001600020908051906020019061178a929190611fe7565b505050565b600081116117d2576040517f08c379a00000000000000000000000000000000000000000000000000000000081526004016117c990612c1c565b60405180910390fd5b6009543414611816576040517f08c379a000000000000000000000000000000000000000000000000000000000815260040161180d90612bbc565b60405180910390fd5b6040518060a001604052808381526020013373ffffffffffffffffffffffffffffffffffffffff1681526020013073ffffffffffffffffffffffffffffffffffffffff16815260200182815260200160001515815250600b60008481526020019081526020016000206000820151816000015560208201518160010160006101000a81548173ffffffffffffffffffffffffffffffffffffffff021916908373ffffffffffffffffffffffffffffffffffffffff16021790555060408201518160020160006101000a81548173ffffffffffffffffffffffffffffffffffffffff021916908373ffffffffffffffffffffffffffffffffffffffff1602179055506060820151816003015560808201518160040160006101000a81548160ff02191690831515021790555090505061194f3330846112b6565b817fb640004f1d14576d0c209e240cad0410e0d8c0c33a09375861fbadae2588a98d333084600060405161198694939291906128ec565b60405180910390a25050565b8173ffffffffffffffffffffffffffffffffffffffff168373ffffffffffffffffffffffffffffffffffffffff161415611a01576040517f08c379a00000000000000000000000000000000000000000000000000000000081526004016119f890612a5c565b60405180910390fd5b80600560008573ffffffffffffffffffffffffffffffffffffffff1673ffffffffffffffffffffffffffffffffffffffff16815260200190815260200160002060008473ffffffffffffffffffffffffffffffffffffffff1673ffffffffffffffffffffffffffffffffffffffff16815260200190815260200160002060006101000a81548160ff0219169083151502179055508173ffffffffffffffffffffffffffffffffffffffff168373ffffffffffffffffffffffffffffffffffffffff167f17307eab39ab6107e8899845ad3d59bd9653f200f220920489ca2b5937696c3183604051611af2919061299f565b60405180910390a3505050565b611b0a8484846112b6565b611b1684848484611c23565b611b55576040517f08c379a0000000000000000000000000000000000000000000000000000000008152600401611b4c906129dc565b60405180910390fd5b50505050565b606060405180602001604052806000815250905090565b6060611b7d826110ab565b611bbc576040517f08c379a0000000000000000000000000000000000000000000000000000000008152600401611bb390612b7c565b60405180910390fd5b6000611bc6611b5b565b90506000815111611be65760405180602001604052806000815250611c11565b80611bf084611dba565b604051602001611c019291906128ad565b6040516020818303038152906040525b915050919050565b505050565b505050565b6000611c448473ffffffffffffffffffffffffffffffffffffffff16611f67565b15611dad578373ffffffffffffffffffffffffffffffffffffffff1663150b7a02611c6d611117565b8786866040518563ffffffff1660e01b8152600401611c8f9493929190612931565b602060405180830381600087803b158015611ca957600080fd5b505af1925050508015611cda57506040513d601f19601f82011682018060405250810190611cd79190612393565b60015b611d5d573d8060008114611d0a576040519150601f19603f3d011682016040523d82523d6000602084013e611d0f565b606091505b50600081511415611d55576040517f08c379a0000000000000000000000000000000000000000000000000000000008152600401611d4c906129dc565b60405180910390fd5b805181602001fd5b63150b7a0260e01b7bffffffffffffffffffffffffffffffffffffffffffffffffffffffff1916817bffffffffffffffffffffffffffffffffffffffffffffffffffffffff191614915050611db2565b600190505b949350505050565b60606000821415611e02576040518060400160405280600181526020017f30000000000000000000000000000000000000000000000000000000000000008152509050611f62565b600082905060005b60008214611e34578080611e1d90612f40565b915050600a82611e2d9190612db0565b9150611e0a565b60008167ffffffffffffffff811115611e76577f4e487b7100000000000000000000000000000000000000000000000000000000600052604160045260246000fd5b6040519080825280601f01601f191660200182016040528015611ea85781602001600182028036833780820191505090505b5090505b60008514611f5b57600182611ec19190612de1565b9150600a85611ed09190612f89565b6030611edc9190612d5a565b60f81b818381518110611f18577f4e487b7100000000000000000000000000000000000000000000000000000000600052603260045260246000fd5b60200101907effffffffffffffffffffffffffffffffffffffffffffffffffffffffffffff1916908160001a905350600a85611f549190612db0565b9450611eac565b8093505050505b919050565b6000808273ffffffffffffffffffffffffffffffffffffffff163b119050919050565b6040518060a0016040528060008152602001600073ffffffffffffffffffffffffffffffffffffffff168152602001600073ffffffffffffffffffffffffffffffffffffffff168152602001600081526020016000151581525090565b828054611ff390612edd565b90600052602060002090601f016020900481019282612015576000855561205c565b82601f1061202e57805160ff191683800117855561205c565b8280016001018555821561205c579182015b8281111561205b578251825591602001919060010190612040565b5b509050612069919061206d565b5090565b5b8082111561208657600081600090555060010161206e565b5090565b600061209d61209884612c7c565b612c57565b9050828152602081018484840111156120b557600080fd5b6120c0848285612e9b565b509392505050565b60006120db6120d684612cad565b612c57565b9050828152602081018484840111156120f357600080fd5b6120fe848285612e9b565b509392505050565b600081359050612115816135cc565b92915050565b60008135905061212a816135e3565b92915050565b60008135905061213f816135fa565b92915050565b600081519050612154816135fa565b92915050565b600082601f83011261216b57600080fd5b813561217b84826020860161208a565b91505092915050565b600082601f83011261219557600080fd5b81356121a58482602086016120c8565b91505092915050565b6000813590506121bd81613611565b92915050565b6000602082840312156121d557600080fd5b60006121e384828501612106565b91505092915050565b600080604083850312156121ff57600080fd5b600061220d85828601612106565b925050602061221e85828601612106565b9150509250929050565b60008060006060848603121561223d57600080fd5b600061224b86828701612106565b935050602061225c86828701612106565b925050604061226d868287016121ae565b9150509250925092565b6000806000806080858703121561228d57600080fd5b600061229b87828801612106565b94505060206122ac87828801612106565b93505060406122bd878288016121ae565b925050606085013567ffffffffffffffff8111156122da57600080fd5b6122e68782880161215a565b91505092959194509250565b6000806040838503121561230557600080fd5b600061231385828601612106565b92505060206123248582860161211b565b9150509250929050565b6000806040838503121561234157600080fd5b600061234f85828601612106565b9250506020612360858286016121ae565b9150509250929050565b60006020828403121561237c57600080fd5b600061238a84828501612130565b91505092915050565b6000602082840312156123a557600080fd5b60006123b384828501612145565b91505092915050565b600080604083850312156123cf57600080fd5b600083013567ffffffffffffffff8111156123e957600080fd5b6123f585828601612184565b9250506020612406858286016121ae565b9150509250929050565b60006020828403121561242257600080fd5b6000612430848285016121ae565b91505092915050565b60006124458383612827565b60a08301905092915050565b61245a81612e27565b82525050565b61246981612e15565b82525050565b600061247a82612cee565b6124848185612d1c565b935061248f83612cde565b8060005b838110156124c05781516124a78882612439565b97506124b283612d0f565b925050600181019050612493565b5085935050505092915050565b6124d681612e39565b82525050565b6124e581612e39565b82525050565b60006124f682612cf9565b6125008185612d2d565b9350612510818560208601612eaa565b61251981613076565b840191505092915050565b600061252f82612d04565b6125398185612d3e565b9350612549818560208601612eaa565b61255281613076565b840191505092915050565b600061256882612d04565b6125728185612d4f565b9350612582818560208601612eaa565b80840191505092915050565b600061259b603283612d3e565b91506125a682613087565b604082019050919050565b60006125be602583612d3e565b91506125c9826130d6565b604082019050919050565b60006125e1601c83612d3e565b91506125ec82613125565b602082019050919050565b6000612604602483612d3e565b915061260f8261314e565b604082019050919050565b6000612627601983612d3e565b91506126328261319d565b602082019050919050565b600061264a602c83612d3e565b9150612655826131c6565b604082019050919050565b600061266d603883612d3e565b915061267882613215565b604082019050919050565b6000612690602a83612d3e565b915061269b82613264565b604082019050919050565b60006126b3602983612d3e565b91506126be826132b3565b604082019050919050565b60006126d6602e83612d3e565b91506126e182613302565b604082019050919050565b60006126f9602083612d3e565b915061270482613351565b602082019050919050565b600061271c603183612d3e565b91506127278261337a565b604082019050919050565b600061273f602c83612d3e565b915061274a826133c9565b604082019050919050565b6000612762602f83612d3e565b915061276d82613418565b604082019050919050565b6000612785602183612d3e565b915061279082613467565b604082019050919050565b60006127a8602483612d3e565b91506127b3826134b6565b604082019050919050565b60006127cb603183612d3e565b91506127d682613505565b604082019050919050565b60006127ee603083612d3e565b91506127f982613554565b604082019050919050565b6000612811601c83612d3e565b915061281c826135a3565b602082019050919050565b60a08201600082015161283d600085018261288f565b5060208201516128506020850182612451565b5060408201516128636040850182612451565b506060820151612876606085018261288f565b50608082015161288960808501826124cd565b50505050565b61289881612e91565b82525050565b6128a781612e91565b82525050565b60006128b9828561255d565b91506128c5828461255d565b91508190509392505050565b60006020820190506128e66000830184612460565b92915050565b60006080820190506129016000830187612460565b61290e6020830186612460565b61291b604083018561289e565b61292860608301846124dc565b95945050505050565b60006080820190506129466000830187612460565b6129536020830186612460565b612960604083018561289e565b818103606083015261297281846124eb565b905095945050505050565b60006020820190508181036000830152612997818461246f565b905092915050565b60006020820190506129b460008301846124dc565b92915050565b600060208201905081810360008301526129d48184612524565b905092915050565b600060208201905081810360008301526129f58161258e565b9050919050565b60006020820190508181036000830152612a15816125b1565b9050919050565b60006020820190508181036000830152612a35816125d4565b9050919050565b60006020820190508181036000830152612a55816125f7565b9050919050565b60006020820190508181036000830152612a758161261a565b9050919050565b60006020820190508181036000830152612a958161263d565b9050919050565b60006020820190508181036000830152612ab581612660565b9050919050565b60006020820190508181036000830152612ad581612683565b9050919050565b60006020820190508181036000830152612af5816126a6565b9050919050565b60006020820190508181036000830152612b15816126c9565b9050919050565b60006020820190508181036000830152612b35816126ec565b9050919050565b60006020820190508181036000830152612b558161270f565b9050919050565b60006020820190508181036000830152612b7581612732565b9050919050565b60006020820190508181036000830152612b9581612755565b9050919050565b60006020820190508181036000830152612bb581612778565b9050919050565b60006020820190508181036000830152612bd58161279b565b9050919050565b60006020820190508181036000830152612bf5816127be565b9050919050565b60006020820190508181036000830152612c15816127e1565b9050919050565b60006020820190508181036000830152612c3581612804565b9050919050565b6000602082019050612c51600083018461289e565b92915050565b6000612c61612c72565b9050612c6d8282612f0f565b919050565b6000604051905090565b600067ffffffffffffffff821115612c9757612c96613047565b5b612ca082613076565b9050602081019050919050565b600067ffffffffffffffff821115612cc857612cc7613047565b5b612cd182613076565b9050602081019050919050565b6000819050602082019050919050565b600081519050919050565b600081519050919050565b600081519050919050565b6000602082019050919050565b600082825260208201905092915050565b600082825260208201905092915050565b600082825260208201905092915050565b600081905092915050565b6000612d6582612e91565b9150612d7083612e91565b9250827fffffffffffffffffffffffffffffffffffffffffffffffffffffffffffffffff03821115612da557612da4612fba565b5b828201905092915050565b6000612dbb82612e91565b9150612dc683612e91565b925082612dd657612dd5612fe9565b5b828204905092915050565b6000612dec82612e91565b9150612df783612e91565b925082821015612e0a57612e09612fba565b5b828203905092915050565b6000612e2082612e71565b9050919050565b6000612e3282612e71565b9050919050565b60008115159050919050565b60007fffffffff0000000000000000000000000000000000000000000000000000000082169050919050565b600073ffffffffffffffffffffffffffffffffffffffff82169050919050565b6000819050919050565b82818337600083830152505050565b60005b83811015612ec8578082015181840152602081019050612ead565b83811115612ed7576000848401525b50505050565b60006002820490506001821680612ef557607f821691505b60208210811415612f0957612f08613018565b5b50919050565b612f1882613076565b810181811067ffffffffffffffff82111715612f3757612f36613047565b5b80604052505050565b6000612f4b82612e91565b91507fffffffffffffffffffffffffffffffffffffffffffffffffffffffffffffffff821415612f7e57612f7d612fba565b5b600182019050919050565b6000612f9482612e91565b9150612f9f83612e91565b925082612faf57612fae612fe9565b5b828206905092915050565b7f4e487b7100000000000000000000000000000000000000000000000000000000600052601160045260246000fd5b7f4e487b7100000000000000000000000000000000000000000000000000000000600052601260045260246000fd5b7f4e487b7100000000000000000000000000000000000000000000000000000000600052602260045260246000fd5b7f4e487b7100000000000000000000000000000000000000000000000000000000600052604160045260246000fd5b6000601f19601f8301169050919050565b7f4552433732313a207472616e7366657220746f206e6f6e20455243373231526560008201527f63656976657220696d706c656d656e7465720000000000000000000000000000602082015250565b7f4552433732313a207472616e736665722066726f6d20696e636f72726563742060008201527f6f776e6572000000000000000000000000000000000000000000000000000000602082015250565b7f4552433732313a20746f6b656e20616c7265616479206d696e74656400000000600082015250565b7f4552433732313a207472616e7366657220746f20746865207a65726f2061646460008201527f7265737300000000000000000000000000000000000000000000000000000000602082015250565b7f4552433732313a20617070726f766520746f2063616c6c657200000000000000600082015250565b7f4552433732313a206f70657261746f7220717565727920666f72206e6f6e657860008201527f697374656e7420746f6b656e0000000000000000000000000000000000000000602082015250565b7f4552433732313a20617070726f76652063616c6c6572206973206e6f74206f7760008201527f6e6572206e6f7220617070726f76656420666f7220616c6c0000000000000000602082015250565b7f4552433732313a2062616c616e636520717565727920666f7220746865207a6560008201527f726f206164647265737300000000000000000000000000000000000000000000602082015250565b7f4552433732313a206f776e657220717565727920666f72206e6f6e657869737460008201527f656e7420746f6b656e0000000000000000000000000000000000000000000000602082015250565b7f45524337323155524953746f726167653a2055524920736574206f66206e6f6e60008201527f6578697374656e7420746f6b656e000000000000000000000000000000000000602082015250565b7f4552433732313a206d696e7420746f20746865207a65726f2061646472657373600082015250565b7f45524337323155524953746f726167653a2055524920717565727920666f722060008201527f6e6f6e6578697374656e7420746f6b656e000000000000000000000000000000602082015250565b7f4552433732313a20617070726f76656420717565727920666f72206e6f6e657860008201527f697374656e7420746f6b656e0000000000000000000000000000000000000000602082015250565b7f4552433732314d657461646174613a2055524920717565727920666f72206e6f60008201527f6e6578697374656e7420746f6b656e0000000000000000000000000000000000602082015250565b7f4552433732313a20617070726f76616c20746f2063757272656e74206f776e6560008201527f7200000000000000000000000000000000000000000000000000000000000000602082015250565b7f5072696365206d75737420626520657175616c20746f206c697374696e67207060008201527f7269636500000000000000000000000000000000000000000000000000000000602082015250565b7f4552433732313a207472616e736665722063616c6c6572206973206e6f74206f60008201527f776e6572206e6f7220617070726f766564000000000000000000000000000000602082015250565b7f4f6e6c79206d61726b6574706c616365206f776e65722063616e20757064617460008201527f65206c697374696e672070726963652e00000000000000000000000000000000602082015250565b7f5072696365206d757374206265206174206c6561737420312077656900000000600082015250565b6135d581612e15565b81146135e057600080fd5b50565b6135ec81612e39565b81146135f757600080fd5b50565b61360381612e45565b811461360e57600080fd5b50565b61361a81612e91565b811461362557600080fd5b5056fea26469706673582212202757e6cef0b14dbece488c4631fb6de493897da5a68bba18d1bc721860e6714d64736f6c63430008040033",
  "linkReferences": {},
  "deployedLinkReferences": {}
}